{"abi":[{"type":"constructor","inputs":[{"name":"identityRegistry_","type":"address","internalType":"address"}],"stateMutability":"nonpayable"},{"type":"function","name":"DEFAULT_ADMIN_ROLE","inputs":[],"outputs":[{"name":"","type":"bytes32","internalType":"bytes32"}],"stateMutability":"view"},{"type":"function","name":"EVALUATOR_ROLE","inputs":[],"outputs":[{"name":"","type":"bytes32","internalType":"bytes32"}],"stateMutability":"view"},{"type":"function","name":"getFeedbackCount","inputs":[{"name":"tokenId","type":"uint256","internalType":"uint256"}],"outputs":[{"name":"","type":"uint256","internalType":"uint256"}],"stateMutability":"view"},{"type":"function","name":"getRoleAdmin","inputs":[{"name":"role","type":"bytes32","internalType":"bytes32"}],"outputs":[{"name":"","type":"bytes32","internalType":"bytes32"}],"stateMutability":"view"},{"type":"function","name":"getSummary","inputs":[{"name":"tokenId","type":"uint256","internalType":"uint256"}],"outputs":[{"name":"feedbackCount","type":"uint256","internalType":"uint256"},{"name":"averageScore","type":"uint256","internalType":"uint256"}],"stateMutability":"view"},{"type":"function","name":"giveFeedback","inputs":[{"name":"tokenId","type":"uint256","internalType":"uint256"},{"name":"score","type":"uint256","internalType":"uint256"},{"name":"contentHash","type":"string","internalType":"string"}],"outputs":[],"stateMutability":"nonpayable"},{"type":"function","name":"grantRole","inputs":[{"name":"role","type":"bytes32","internalType":"bytes32"},{"name":"account","type":"address","internalType":"address"}],"outputs":[],"stateMutability":"nonpayable"},{"type":"function","name":"hasRole","inputs":[{"name":"role","type":"bytes32","internalType":"bytes32"},{"name":"account","type":"address","internalType":"address"}],"outputs":[{"name":"","type":"bool","internalType":"bool"}],"stateMutability":"view"},{"type":"function","name":"identityRegistry","inputs":[],"outputs":[{"name":"","type":"address","internalType":"contract IIdentityRegistry"}],"stateMutability":"view"},{"type":"function","name":"pause","inputs":[],"outputs":[],"stateMutability":"nonpayable"},{"type":"function","name":"paused","inputs":[],"outputs":[{"name":"","type":"bool","internalType":"bool"}],"stateMutability":"view"},{"type":"function","name":"readFeedback","inputs":[{"name":"tokenId","type":"uint256","internalType":"uint256"},{"name":"index","type":"uint256","internalType":"uint256"}],"outputs":[{"name":"evaluator","type":"address","internalType":"address"},{"name":"score","type":"uint256","internalType":"uint256"},{"name":"contentHash","type":"string","internalType":"string"},{"name":"timestamp","type":"uint256","internalType":"uint256"}],"stateMutability":"view"},{"type":"function","name":"renounceRole","inputs":[{"name":"role","type":"bytes32","internalType":"bytes32"},{"name":"callerConfirmation","type":"address","internalType":"address"}],"outputs":[],"stateMutability":"nonpayable"},{"type":"function","name":"revokeRole","inputs":[{"name":"role","type":"bytes32","internalType":"bytes32"},{"name":"account","type":"address","internalType":"address"}],"outputs":[],"stateMutability":"nonpayable"},{"type":"function","name":"supportsInterface","inputs":[{"name":"interfaceId","type":"bytes4","internalType":"bytes4"}],"outputs":[{"name":"","type":"bool","internalType":"bool"}],"stateMutability":"view"},{"type":"function","name":"unpause","inputs":[],"outputs":[],"stateMutability":"nonpayable"},{"type":"event","name":"FeedbackGiven","inputs":[{"name":"tokenId","type":"uint256","indexed":true,"internalType":"uint256"},{"name":"evaluator","type":"address","indexed":true,"internalType":"address"},{"name":"score","type":"uint256","indexed":false,"internalType":"uint256"},{"name":"contentHash","type":"string","indexed":false,"internalType":"string"}],"anonymous":false},{"type":"event","name":"Paused","inputs":[{"name":"account","type":"address","indexed":false,"internalType":"address"}],"anonymous":false},{"type":"event","name":"RoleAdminChanged","inputs":[{"name":"role","type":"bytes32","indexed":true,"internalType":"bytes32"},{"name":"previousAdminRole","type":"bytes32","indexed":true,"internalType":"bytes32"},{"name":"newAdminRole","type":"bytes32","indexed":true,"internalType":"bytes32"}],"anonymous":false},{"type":"event","name":"RoleGranted","inputs":[{"name":"role","type":"bytes32","indexed":true,"internalType":"bytes32"},{"name":"account","type":"address","indexed":true,"internalType":"address"},{"name":"sender","type":"address","indexed":true,"internalType":"address"}],"anonymous":false},{"type":"event","name":"RoleRevoked","inputs":[{"name":"role","type":"bytes32","indexed":true,"internalType":"bytes32"},{"name":"account","type":"address","indexed":true,"internalType":"address"},{"name":"sender","type":"address","indexed":true,"internalType":"address"}],"anonymous":false},{"type":"event","name":"Unpaused","inputs":[{"name":"account","type":"address","indexed":false,"internalType":"address"}],"anonymous":false},{"type":"error","name":"AccessControlBadConfirmation","inputs":[]},{"type":"error","name":"AccessControlUnauthorizedAccount","inputs":[{"name":"account","type":"address","internalType":"address"},{"name":"neededRole","type":"bytes32","internalType":"bytes32"}]},{"type":"error","name":"ContentHashTooLong","inputs":[{"name":"length","type":"uint256","internalType":"uint256"}]},{"type":"error","name":"EnforcedPause","inputs":[]},{"type":"error","name":"ExpectedPause","inputs":[]},{"type":"error","name":"FeedbackIndexOutOfBounds","inputs":[{"name":"index","type":"uint256","internalType":"uint256"},{"name":"length","type":"uint256","internalType":"uint256"}]},{"type":"error","name":"InvalidIdentityRegistry","inputs":[]},{"type":"error","name":"InvalidScore","inputs":[{"name":"score","type":"uint256","internalType":"uint256"}]},{"type":"error","name":"ProjectNotRegistered","inputs":[{"name":"tokenId","type":"uint256","internalType":"uint256"}]}],"bytecode":{"object":"0x60a060405234801562000010575f80fd5b5060405162001c0338038062001c038339818101604052810190620000369190620002e9565b5f73ffffffffffffffffffffffffffffffffffffffff168173ffffffffffffffffffffffffffffffffffffffff16036200009c576040517f188aad7e00000000000000000000000000000000000000000000000000000000815260040160405180910390fd5b8073ffffffffffffffffffffffffffffffffffffffff1660808173ffffffffffffffffffffffffffffffffffffffff1681525050620000e45f801b336200011f60201b60201c565b50620001177f4848aa3d2c0568bab3ca9720f91818ee0957e95426fa0627cc4809e2e5ed8be0336200011f60201b60201c565b505062000319565b5f6200013283836200021a60201b60201c565b620002105760015f808581526020019081526020015f205f015f8473ffffffffffffffffffffffffffffffffffffffff1673ffffffffffffffffffffffffffffffffffffffff1681526020019081526020015f205f6101000a81548160ff021916908315150217905550620001ac6200027d60201b60201c565b73ffffffffffffffffffffffffffffffffffffffff168273ffffffffffffffffffffffffffffffffffffffff16847f2f8788117e7eff1d82e926ec794901d17c78024a50270940304540a733656f0d60405160405180910390a46001905062000214565b5f90505b92915050565b5f805f8481526020019081526020015f205f015f8373ffffffffffffffffffffffffffffffffffffffff1673ffffffffffffffffffffffffffffffffffffffff1681526020019081526020015f205f9054906101000a900460ff16905092915050565b5f33905090565b5f80fd5b5f73ffffffffffffffffffffffffffffffffffffffff82169050919050565b5f620002b38262000288565b9050919050565b620002c581620002a7565b8114620002d0575f80fd5b50565b5f81519050620002e381620002ba565b92915050565b5f6020828403121562000301576200030062000284565b5b5f6200031084828501620002d3565b91505092915050565b6080516118ca620003395f395f818161039d015261077e01526118ca5ff3fe608060405234801561000f575f80fd5b50600436106100fe575f3560e01c80634537b764116100955780639d7a4fc3116100645780639d7a4fc31461029b578063a217fddf146102b7578063aee14460146102d5578063d547741f14610306576100fe565b80634537b764146102135780635c975abb146102435780638456cb591461026157806391d148541461026b576100fe565b80632f2ff15d116100d15780632f2ff15d146101b357806330d0ea31146101cf57806336568abe146101ed5780633f4ba83a14610209576100fe565b806301ffc9a714610102578063134e18f414610132578063248a9ca31461015057806328fdef4914610180575b5f80fd5b61011c60048036038101906101179190610efd565b610322565b6040516101299190610f42565b60405180910390f35b61013a61039b565b6040516101479190610fd5565b60405180910390f35b61016a60048036038101906101659190611021565b6103bf565b604051610177919061105b565b60405180910390f35b61019a600480360381019061019591906110a7565b6103db565b6040516101aa949392919061119e565b60405180910390f35b6101cd60048036038101906101c89190611212565b610533565b005b6101d7610555565b6040516101e4919061105b565b60405180910390f35b61020760048036038101906102029190611212565b610579565b005b6102116105f4565b005b61022d60048036038101906102289190611250565b61060b565b60405161023a919061127b565b60405180910390f35b61024b610628565b6040516102589190610f42565b60405180910390f35b61026961063d565b005b61028560048036038101906102809190611212565b610654565b6040516102929190610f42565b60405180910390f35b6102b560048036038101906102b091906112f5565b6106b7565b005b6102bf610a41565b6040516102cc919061105b565b60405180910390f35b6102ef60048036038101906102ea9190611250565b610a47565b6040516102fd929190611366565b60405180910390f35b610320600480360381019061031b9190611212565b610a94565b005b5f7f7965db0b000000000000000000000000000000000000000000000000000000007bffffffffffffffffffffffffffffffffffffffffffffffffffffffff1916827bffffffffffffffffffffffffffffffffffffffffffffffffffffffff19161480610394575061039382610ab6565b5b9050919050565b7f000000000000000000000000000000000000000000000000000000000000000081565b5f805f8381526020019081526020015f20600101549050919050565b5f8060605f8060025f8881526020019081526020015f20905080805490508610610442578581805490506040517f1e800024000000000000000000000000000000000000000000000000000000008152600401610439929190611366565b60405180910390fd5b5f8187815481106104565761045561138d565b5b905f5260205f2090600402019050805f0160019054906101000a900473ffffffffffffffffffffffffffffffffffffffff1681600101548260020183600301548180546104a2906113e7565b80601f01602080910402602001604051908101604052809291908181526020018280546104ce906113e7565b80156105195780601f106104f057610100808354040283529160200191610519565b820191905f5260205f20905b8154815290600101906020018083116104fc57829003601f168201915b505050505091509550955095509550505092959194509250565b61053c826103bf565b61054581610b1f565b61054f8383610b33565b50505050565b7f4848aa3d2c0568bab3ca9720f91818ee0957e95426fa0627cc4809e2e5ed8be081565b610581610c1c565b73ffffffffffffffffffffffffffffffffffffffff168173ffffffffffffffffffffffffffffffffffffffff16146105e5576040517f6697b23200000000000000000000000000000000000000000000000000000000815260040160405180910390fd5b6105ef8282610c23565b505050565b5f801b61060081610b1f565b610608610d0c565b50565b5f60025f8381526020019081526020015f20805490509050919050565b5f60015f9054906101000a900460ff16905090565b5f801b61064981610b1f565b610651610d6d565b50565b5f805f8481526020019081526020015f205f015f8373ffffffffffffffffffffffffffffffffffffffff1673ffffffffffffffffffffffffffffffffffffffff1681526020019081526020015f205f9054906101000a900460ff16905092915050565b7f4848aa3d2c0568bab3ca9720f91818ee0957e95426fa0627cc4809e2e5ed8be06106e181610b1f565b6106e9610dce565b606484111561072f57836040517f590e1cd6000000000000000000000000000000000000000000000000000000008152600401610726919061127b565b60405180910390fd5b61010083839050111561077c57828290506040517fd4a67135000000000000000000000000000000000000000000000000000000008152600401610773919061127b565b60405180910390fd5b7f000000000000000000000000000000000000000000000000000000000000000073ffffffffffffffffffffffffffffffffffffffff16636352211e866040518263ffffffff1660e01b81526004016107d5919061127b565b602060405180830381865afa92505050801561080f57506040513d601f19601f8201168201806040525081019061080c919061142b565b60015b61085057846040517fc79ad1f4000000000000000000000000000000000000000000000000000000008152600401610847919061127b565b60405180910390fd5b5060025f8681526020019081526020015f206040518060a001604052806001151581526020013373ffffffffffffffffffffffffffffffffffffffff16815260200186815260200185858080601f0160208091040260200160405190810160405280939291908181526020018383808284375f81840152601f19601f82011690508083019250505050505050815260200142815250908060018154018082558091505060019003905f5260205f2090600402015f909190919091505f820151815f015f6101000a81548160ff0219169083151502179055506020820151815f0160016101000a81548173ffffffffffffffffffffffffffffffffffffffff021916908373ffffffffffffffffffffffffffffffffffffffff16021790555060408201518160010155606082015181600201908161098d9190611617565b506080820151816003015550508360035f8781526020019081526020015f205f8282546109ba9190611713565b9250508190555060045f8681526020019081526020015f205f8154809291906109e290611746565b91905055503373ffffffffffffffffffffffffffffffffffffffff16857f636cc1a2759360d8f2896b89951b9d6c9dfa12d25214d4f6e230e1f4e630fc24868686604051610a32939291906117c7565b60405180910390a35050505050565b5f801b81565b5f8060045f8481526020019081526020015f205491505f8203610a6f575f8091509150610a8f565b8160035f8581526020019081526020015f2054610a8c9190611824565b90505b915091565b610a9d826103bf565b610aa681610b1f565b610ab08383610c23565b50505050565b5f7f01ffc9a7000000000000000000000000000000000000000000000000000000007bffffffffffffffffffffffffffffffffffffffffffffffffffffffff1916827bffffffffffffffffffffffffffffffffffffffffffffffffffffffff1916149050919050565b610b3081610b2b610c1c565b610e0f565b50565b5f610b3e8383610654565b610c125760015f808581526020019081526020015f205f015f8473ffffffffffffffffffffffffffffffffffffffff1673ffffffffffffffffffffffffffffffffffffffff1681526020019081526020015f205f6101000a81548160ff021916908315150217905550610baf610c1c565b73ffffffffffffffffffffffffffffffffffffffff168273ffffffffffffffffffffffffffffffffffffffff16847f2f8788117e7eff1d82e926ec794901d17c78024a50270940304540a733656f0d60405160405180910390a460019050610c16565b5f90505b92915050565b5f33905090565b5f610c2e8383610654565b15610d02575f805f8581526020019081526020015f205f015f8473ffffffffffffffffffffffffffffffffffffffff1673ffffffffffffffffffffffffffffffffffffffff1681526020019081526020015f205f6101000a81548160ff021916908315150217905550610c9f610c1c565b73ffffffffffffffffffffffffffffffffffffffff168273ffffffffffffffffffffffffffffffffffffffff16847ff6391f5c32d9c69d2a47ea670b442974b53935d1edc7fd64eb21e047a839171b60405160405180910390a460019050610d06565b5f90505b92915050565b610d14610e60565b5f60015f6101000a81548160ff0219169083151502179055507f5db9ee0a495bf2e6ff9c91a7834c1ba4fdd244a5e8aa4e537bd38aeae4b073aa610d56610c1c565b604051610d639190611854565b60405180910390a1565b610d75610dce565b6001805f6101000a81548160ff0219169083151502179055507f62e78cea01bee320cd4e420270b5ea74000d11b0c9f74754ebdbfc544b05a258610db7610c1c565b604051610dc49190611854565b60405180910390a1565b610dd6610628565b15610e0d576040517fd93c066500000000000000000000000000000000000000000000000000000000815260040160405180910390fd5b565b610e198282610654565b610e5c5780826040517fe2517d3f000000000000000000000000000000000000000000000000000000008152600401610e5392919061186d565b60405180910390fd5b5050565b610e68610628565b610e9e576040517f8dfc202b00000000000000000000000000000000000000000000000000000000815260040160405180910390fd5b565b5f80fd5b5f80fd5b5f7fffffffff0000000000000000000000000000000000000000000000000000000082169050919050565b610edc81610ea8565b8114610ee6575f80fd5b50565b5f81359050610ef781610ed3565b92915050565b5f60208284031215610f1257610f11610ea0565b5b5f610f1f84828501610ee9565b91505092915050565b5f8115159050919050565b610f3c81610f28565b82525050565b5f602082019050610f555f830184610f33565b92915050565b5f73ffffffffffffffffffffffffffffffffffffffff82169050919050565b5f819050919050565b5f610f9d610f98610f9384610f5b565b610f7a565b610f5b565b9050919050565b5f610fae82610f83565b9050919050565b5f610fbf82610fa4565b9050919050565b610fcf81610fb5565b82525050565b5f602082019050610fe85f830184610fc6565b92915050565b5f819050919050565b61100081610fee565b811461100a575f80fd5b50565b5f8135905061101b81610ff7565b92915050565b5f6020828403121561103657611035610ea0565b5b5f6110438482850161100d565b91505092915050565b61105581610fee565b82525050565b5f60208201905061106e5f83018461104c565b92915050565b5f819050919050565b61108681611074565b8114611090575f80fd5b50565b5f813590506110a18161107d565b92915050565b5f80604083850312156110bd576110bc610ea0565b5b5f6110ca85828601611093565b92505060206110db85828601611093565b9150509250929050565b5f6110ef82610f5b565b9050919050565b6110ff816110e5565b82525050565b61110e81611074565b82525050565b5f81519050919050565b5f82825260208201905092915050565b5f5b8381101561114b578082015181840152602081019050611130565b5f8484015250505050565b5f601f19601f8301169050919050565b5f61117082611114565b61117a818561111e565b935061118a81856020860161112e565b61119381611156565b840191505092915050565b5f6080820190506111b15f8301876110f6565b6111be6020830186611105565b81810360408301526111d08185611166565b90506111df6060830184611105565b95945050505050565b6111f1816110e5565b81146111fb575f80fd5b50565b5f8135905061120c816111e8565b92915050565b5f806040838503121561122857611227610ea0565b5b5f6112358582860161100d565b9250506020611246858286016111fe565b9150509250929050565b5f6020828403121561126557611264610ea0565b5b5f61127284828501611093565b91505092915050565b5f60208201905061128e5f830184611105565b92915050565b5f80fd5b5f80fd5b5f80fd5b5f8083601f8401126112b5576112b4611294565b5b8235905067ffffffffffffffff8111156112d2576112d1611298565b5b6020830191508360018202830111156112ee576112ed61129c565b5b9250929050565b5f805f806060858703121561130d5761130c610ea0565b5b5f61131a87828801611093565b945050602061132b87828801611093565b935050604085013567ffffffffffffffff81111561134c5761134b610ea4565b5b611358878288016112a0565b925092505092959194509250565b5f6040820190506113795f830185611105565b6113866020830184611105565b9392505050565b7f4e487b71000000000000000000000000000000000000000000000000000000005f52603260045260245ffd5b7f4e487b71000000000000000000000000000000000000000000000000000000005f52602260045260245ffd5b5f60028204905060018216806113fe57607f821691505b602082108103611411576114106113ba565b5b50919050565b5f81519050611425816111e8565b92915050565b5f602082840312156114405761143f610ea0565b5b5f61144d84828501611417565b91505092915050565b7f4e487b71000000000000000000000000000000000000000000000000000000005f52604160045260245ffd5b5f819050815f5260205f209050919050565b5f6020601f8301049050919050565b5f82821b905092915050565b5f600883026114df7fffffffffffffffffffffffffffffffffffffffffffffffffffffffffffffffff826114a4565b6114e986836114a4565b95508019841693508086168417925050509392505050565b5f61151b61151661151184611074565b610f7a565b611074565b9050919050565b5f819050919050565b61153483611501565b61154861154082611522565b8484546114b0565b825550505050565b5f90565b61155c611550565b61156781848461152b565b505050565b5b8181101561158a5761157f5f82611554565b60018101905061156d565b5050565b601f8211156115cf576115a081611483565b6115a984611495565b810160208510156115b8578190505b6115cc6115c485611495565b83018261156c565b50505b505050565b5f82821c905092915050565b5f6115ef5f19846008026115d4565b1980831691505092915050565b5f61160783836115e0565b9150826002028217905092915050565b61162082611114565b67ffffffffffffffff81111561163957611638611456565b5b61164382546113e7565b61164e82828561158e565b5f60209050601f83116001811461167f575f841561166d578287015190505b61167785826115fc565b8655506116de565b601f19841661168d86611483565b5f5b828110156116b45784890151825560018201915060208501945060208101905061168f565b868310156116d157848901516116cd601f8916826115e0565b8355505b6001600288020188555050505b505050505050565b7f4e487b71000000000000000000000000000000000000000000000000000000005f52601160045260245ffd5b5f61171d82611074565b915061172883611074565b92508282019050808211156117405761173f6116e6565b5b92915050565b5f61175082611074565b91507fffffffffffffffffffffffffffffffffffffffffffffffffffffffffffffffff8203611782576117816116e6565b5b600182019050919050565b828183375f83830152505050565b5f6117a6838561111e565b93506117b383858461178d565b6117bc83611156565b840190509392505050565b5f6040820190506117da5f830186611105565b81810360208301526117ed81848661179b565b9050949350505050565b7f4e487b71000000000000000000000000000000000000000000000000000000005f52601260045260245ffd5b5f61182e82611074565b915061183983611074565b925082611849576118486117f7565b5b828204905092915050565b5f6020820190506118675f8301846110f6565b92915050565b5f6040820190506118805f8301856110f6565b61188d602083018461104c565b939250505056fea2646970667358221220d5e2ad5f9ed6faea43f738f569e79a5a745a55607a7b9b095eb1ef8b61d899da64736f6c63430008180033","linkReferences":{}},"methodIdentifiers":{"DEFAULT_ADMIN_ROLE()":"a217fddf","EVALUATOR_ROLE()":"30d0ea31","getFeedbackCount(uint256)":"4537b764","getRoleAdmin(bytes32)":"248a9ca3","getSummary(uint256)":"aee14460","giveFeedback(uint256,uint256,string)":"9d7a4fc3","grantRole(bytes32,address)":"2f2ff15d","hasRole(bytes32,address)":"91d14854","identityRegistry()":"134e18f4","pause()":"8456cb59","paused()":"5c975abb","readFeedback(uint256,uint256)":"28fdef49","renounceRole(bytes32,address)":"36568abe","revokeRole(bytes32,address)":"d547741f","supportsInterface(bytes4)":"01ffc9a7","unpause()":"3f4ba83a"},"id":37}