{"abi":[{"type":"constructor","inputs":[{"name":"identityRegistry_","type":"address","internalType":"address"}],"stateMutability":"nonpayable"},{"type":"function","name":"DEFAULT_ADMIN_ROLE","inputs":[],"outputs":[{"name":"","type":"bytes32","internalType":"bytes32"}],"stateMutability":"view"},{"type":"function","name":"EVALUATOR_ROLE","inputs":[],"outputs":[{"name":"","type":"bytes32","internalType":"bytes32"}],"stateMutability":"view"},{"type":"function","name":"getFeedbackCount","inputs":[{"name":"tokenId","type":"uint256","internalType":"uint256"}],"outputs":[{"name":"","type":"uint256","internalType":"uint256"}],"stateMutability":"view"},{"type":"function","name":"getRoleAdmin","inputs":[{"name":"role","type":"bytes32","internalType":"bytes32"}],"outputs":[{"name":"","type":"bytes32","internalType":"bytes32"}],"stateMutability":"view"},{"type":"function","name":"getSummary","inputs":[{"name":"tokenId","type":"uint256","internalType":"uint256"}],"outputs":[{"name":"feedbackCount","type":"uint256","internalType":"uint256"},{"name":"averageScore","type":"uint256","internalType":"uint256"}],"stateMutability":"view"},{"type":"function","name":"giveFeedback","inputs":[{"name":"tokenId","type":"uint256","internalType":"uint256"},{"name":"score","type":"uint256","internalType":"uint256"},{"name":"contentHash","type":"string","internalType":"string"}],"outputs":[],"stateMutability":"nonpayable"},{"type":"function","name":"grantRole","inputs":[{"name":"role","type":"bytes32","internalType":"bytes32"},{"name":"account","type":"address","internalType":"address"}],"outputs":[],"stateMutability":"nonpayable"},{"type":"function","name":"hasRole","inputs":[{"name":"role","type":"bytes32","internalType":"bytes32"},{"name":"account","type":"address","internalType":"address"}],"outputs":[{"name":"","type":"bool","internalType":"bool"}],"stateMutability":"view"},{"type":"function","name":"identityRegistry","inputs":[],"outputs":[{"name":"","type":"address","internalType":"contract IIdentityRegistry"}],"stateMutability":"view"},{"type":"function","name":"pause","inputs":[],"outputs":[],"stateMutability":"nonpayable"},{"type":"function","name":"paused","inputs":[],"outputs":[{"name":"","type":"bool","internalType":"bool"}],"stateMutability":"view"},{"type":"function","name":"readFeedback","inputs":[{"name":"tokenId","type":"uint256","internalType":"uint256"},{"name":"index","type":"uint256","internalType":"uint256"}],"outputs":[{"name":"evaluator","type":"address","internalType":"address"},{"name":"score","type":"uint256","internalType":"uint256"},{"name":"contentHash","type":"string","internalType":"string"},{"name":"timestamp","type":"uint256","internalType":"uint256"}],"stateMutability":"view"},{"type":"function","name":"renounceRole","inputs":[{"name":"role","type":"bytes32","internalType":"bytes32"},{"name":"callerConfirmation","type":"address","internalType":"address"}],"outputs":[],"stateMutability":"nonpayable"},{"type":"function","name":"revokeRole","inputs":[{"name":"role","type":"bytes32","internalType":"bytes32"},{"name":"account","type":"address","internalType":"address"}],"outputs":[],"stateMutability":"nonpayable"},{"type":"function","name":"supportsInterface","inputs":[{"name":"interfaceId","type":"bytes4","internalType":"bytes4"}],"outputs":[{"name":"","type":"bool","internalType":"bool"}],"stateMutability":"view"},{"type":"function","name":"unpause","inputs":[],"outputs":[],"stateMutability":"nonpayable"},{"type":"event","name":"FeedbackGiven","inputs":[{"name":"tokenId","type":"uint256","indexed":true,"internalType":"uint256"},{"name":"evaluator","type":"address","indexed":true,"internalType":"address"},{"name":"score","type":"uint256","indexed":false,"internalType":"uint256"},{"name":"contentHash","type":"string","indexed":false,"internalType":"string"}],"anonymous":false},{"type":"event","name":"Paused","inputs":[{"name":"account","type":"address","indexed":false,"internalType":"address"}],"anonymous":false},{"type":"event","name":"RoleAdminChanged","inputs":[{"name":"role","type":"bytes32","indexed":true,"internalType":"bytes32"},{"name":"previousAdminRole","type":"bytes32","indexed":true,"internalType":"bytes32"},{"name":"newAdminRole","type":"bytes32","indexed":true,"internalType":"bytes32"}],"anonymous":false},{"type":"event","name":"RoleGranted","inputs":[{"name":"role","type":"bytes32","indexed":true,"internalType":"bytes32"},{"name":"account","type":"address","indexed":true,"internalType":"address"},{"name":"sender","type":"address","indexed":true,"internalType":"address"}],"anonymous":false},{"type":"event","name":"RoleRevoked","inputs":[{"name":"role","type":"bytes32","indexed":true,"internalType":"bytes32"},{"name":"account","type":"address","indexed":true,"internalType":"address"},{"name":"sender","type":"address","indexed":true,"internalType":"address"}],"anonymous":false},{"type":"event","name":"Unpaused","inputs":[{"name":"account","type":"address","indexed":false,"internalType":"address"}],"anonymous":false},{"type":"error","name":"AccessControlBadConfirmation","inputs":[]},{"type":"error","name":"AccessControlUnauthorizedAccount","inputs":[{"name":"account","type":"address","internalType":"address"},{"name":"neededRole","type":"bytes32","internalType":"bytes32"}]},{"type":"error","name":"EnforcedPause","inputs":[]},{"type":"error","name":"ExpectedPause","inputs":[]},{"type":"error","name":"FeedbackIndexOutOfBounds","inputs":[{"name":"index","type":"uint256","internalType":"uint256"},{"name":"length","type":"uint256","internalType":"uint256"}]},{"type":"error","name":"InvalidIdentityRegistry","inputs":[]},{"type":"error","name":"InvalidScore","inputs":[{"name":"score","type":"uint256","internalType":"uint256"}]},{"type":"error","name":"ProjectNotRegistered","inputs":[{"name":"tokenId","type":"uint256","internalType":"uint256"}]}],"bytecode":{"object":"0x60a060405234801562000010575f80fd5b5060405162001b6238038062001b628339818101604052810190620000369190620002e9565b5f73ffffffffffffffffffffffffffffffffffffffff168173ffffffffffffffffffffffffffffffffffffffff16036200009c576040517f188aad7e00000000000000000000000000000000000000000000000000000000815260040160405180910390fd5b8073ffffffffffffffffffffffffffffffffffffffff1660808173ffffffffffffffffffffffffffffffffffffffff1681525050620000e45f801b336200011f60201b60201c565b50620001177f4848aa3d2c0568bab3ca9720f91818ee0957e95426fa0627cc4809e2e5ed8be0336200011f60201b60201c565b505062000319565b5f6200013283836200021a60201b60201c565b620002105760015f808581526020019081526020015f205f015f8473ffffffffffffffffffffffffffffffffffffffff1673ffffffffffffffffffffffffffffffffffffffff1681526020019081526020015f205f6101000a81548160ff021916908315150217905550620001ac6200027d60201b60201c565b73ffffffffffffffffffffffffffffffffffffffff168273ffffffffffffffffffffffffffffffffffffffff16847f2f8788117e7eff1d82e926ec794901d17c78024a50270940304540a733656f0d60405160405180910390a46001905062000214565b5f90505b92915050565b5f805f8481526020019081526020015f205f015f8373ffffffffffffffffffffffffffffffffffffffff1673ffffffffffffffffffffffffffffffffffffffff1681526020019081526020015f205f9054906101000a900460ff16905092915050565b5f33905090565b5f80fd5b5f73ffffffffffffffffffffffffffffffffffffffff82169050919050565b5f620002b38262000288565b9050919050565b620002c581620002a7565b8114620002d0575f80fd5b50565b5f81519050620002e381620002ba565b92915050565b5f6020828403121562000301576200030062000284565b5b5f6200031084828501620002d3565b91505092915050565b608051611829620003395f395f818161039d015261073101526118295ff3fe608060405234801561000f575f80fd5b50600436106100fe575f3560e01c80634537b764116100955780639d7a4fc3116100645780639d7a4fc31461029b578063a217fddf146102b7578063aee14460146102d5578063d547741f14610306576100fe565b80634537b764146102135780635c975abb146102435780638456cb591461026157806391d148541461026b576100fe565b80632f2ff15d116100d15780632f2ff15d146101b357806330d0ea31146101cf57806336568abe146101ed5780633f4ba83a14610209576100fe565b806301ffc9a714610102578063134e18f414610132578063248a9ca31461015057806328fdef4914610180575b5f80fd5b61011c60048036038101906101179190610ea3565b610322565b6040516101299190610ee8565b60405180910390f35b61013a61039b565b6040516101479190610f7b565b60405180910390f35b61016a60048036038101906101659190610fc7565b6103bf565b6040516101779190611001565b60405180910390f35b61019a6004803603810190610195919061104d565b6103db565b6040516101aa9493929190611144565b60405180910390f35b6101cd60048036038101906101c891906111b8565b610533565b005b6101d7610555565b6040516101e49190611001565b60405180910390f35b610207600480360381019061020291906111b8565b610579565b005b6102116105f4565b005b61022d600480360381019061022891906111f6565b61060b565b60405161023a9190611221565b60405180910390f35b61024b610628565b6040516102589190610ee8565b60405180910390f35b61026961063d565b005b610285600480360381019061028091906111b8565b610654565b6040516102929190610ee8565b60405180910390f35b6102b560048036038101906102b0919061129b565b6106b7565b005b6102bf6109a7565b6040516102cc9190611001565b60405180910390f35b6102ef60048036038101906102ea91906111f6565b6109ad565b6040516102fd92919061130c565b60405180910390f35b610320600480360381019061031b91906111b8565b610a3a565b005b5f7f7965db0b000000000000000000000000000000000000000000000000000000007bffffffffffffffffffffffffffffffffffffffffffffffffffffffff1916827bffffffffffffffffffffffffffffffffffffffffffffffffffffffff19161480610394575061039382610a5c565b5b9050919050565b7f000000000000000000000000000000000000000000000000000000000000000081565b5f805f8381526020019081526020015f20600101549050919050565b5f8060605f8060025f8881526020019081526020015f20905080805490508610610442578581805490506040517f1e80002400000000000000000000000000000000000000000000000000000000815260040161043992919061130c565b60405180910390fd5b5f81878154811061045657610455611333565b5b905f5260205f2090600402019050805f0160019054906101000a900473ffffffffffffffffffffffffffffffffffffffff1681600101548260020183600301548180546104a29061138d565b80601f01602080910402602001604051908101604052809291908181526020018280546104ce9061138d565b80156105195780601f106104f057610100808354040283529160200191610519565b820191905f5260205f20905b8154815290600101906020018083116104fc57829003601f168201915b505050505091509550955095509550505092959194509250565b61053c826103bf565b61054581610ac5565b61054f8383610ad9565b50505050565b7f4848aa3d2c0568bab3ca9720f91818ee0957e95426fa0627cc4809e2e5ed8be081565b610581610bc2565b73ffffffffffffffffffffffffffffffffffffffff168173ffffffffffffffffffffffffffffffffffffffff16146105e5576040517f6697b23200000000000000000000000000000000000000000000000000000000815260040160405180910390fd5b6105ef8282610bc9565b505050565b5f801b61060081610ac5565b610608610cb2565b50565b5f60025f8381526020019081526020015f20805490509050919050565b5f60015f9054906101000a900460ff16905090565b5f801b61064981610ac5565b610651610d13565b50565b5f805f8481526020019081526020015f205f015f8373ffffffffffffffffffffffffffffffffffffffff1673ffffffffffffffffffffffffffffffffffffffff1681526020019081526020015f205f9054906101000a900460ff16905092915050565b7f4848aa3d2c0568bab3ca9720f91818ee0957e95426fa0627cc4809e2e5ed8be06106e181610ac5565b6106e9610d74565b606484111561072f57836040517f590e1cd60000000000000000000000000000000000000000000000000000000081526004016107269190611221565b60405180910390fd5b7f000000000000000000000000000000000000000000000000000000000000000073ffffffffffffffffffffffffffffffffffffffff16636352211e866040518263ffffffff1660e01b81526004016107889190611221565b602060405180830381865afa9250505080156107c257506040513d601f19601f820116820180604052508101906107bf91906113d1565b60015b61080357846040517fc79ad1f40000000000000000000000000000000000000000000000000000000081526004016107fa9190611221565b60405180910390fd5b5060025f8681526020019081526020015f206040518060a001604052806001151581526020013373ffffffffffffffffffffffffffffffffffffffff16815260200186815260200185858080601f0160208091040260200160405190810160405280939291908181526020018383808284375f81840152601f19601f82011690508083019250505050505050815260200142815250908060018154018082558091505060019003905f5260205f2090600402015f909190919091505f820151815f015f6101000a81548160ff0219169083151502179055506020820151815f0160016101000a81548173ffffffffffffffffffffffffffffffffffffffff021916908373ffffffffffffffffffffffffffffffffffffffff16021790555060408201518160010155606082015181600201908161094091906115bd565b506080820151816003015550503373ffffffffffffffffffffffffffffffffffffffff16857f636cc1a2759360d8f2896b89951b9d6c9dfa12d25214d4f6e230e1f4e630fc24868686604051610998939291906116c6565b60405180910390a35050505050565b5f801b81565b5f805f60025f8581526020019081526020015f209050808054905092505f83036109dd575f809250925050610a35565b5f805b84811015610a23578281815481106109fb576109fa611333565b5b905f5260205f2090600402016001015482610a169190611723565b91508060010190506109e0565b508381610a309190611783565b925050505b915091565b610a43826103bf565b610a4c81610ac5565b610a568383610bc9565b50505050565b5f7f01ffc9a7000000000000000000000000000000000000000000000000000000007bffffffffffffffffffffffffffffffffffffffffffffffffffffffff1916827bffffffffffffffffffffffffffffffffffffffffffffffffffffffff1916149050919050565b610ad681610ad1610bc2565b610db5565b50565b5f610ae48383610654565b610bb85760015f808581526020019081526020015f205f015f8473ffffffffffffffffffffffffffffffffffffffff1673ffffffffffffffffffffffffffffffffffffffff1681526020019081526020015f205f6101000a81548160ff021916908315150217905550610b55610bc2565b73ffffffffffffffffffffffffffffffffffffffff168273ffffffffffffffffffffffffffffffffffffffff16847f2f8788117e7eff1d82e926ec794901d17c78024a50270940304540a733656f0d60405160405180910390a460019050610bbc565b5f90505b92915050565b5f33905090565b5f610bd48383610654565b15610ca8575f805f8581526020019081526020015f205f015f8473ffffffffffffffffffffffffffffffffffffffff1673ffffffffffffffffffffffffffffffffffffffff1681526020019081526020015f205f6101000a81548160ff021916908315150217905550610c45610bc2565b73ffffffffffffffffffffffffffffffffffffffff168273ffffffffffffffffffffffffffffffffffffffff16847ff6391f5c32d9c69d2a47ea670b442974b53935d1edc7fd64eb21e047a839171b60405160405180910390a460019050610cac565b5f90505b92915050565b610cba610e06565b5f60015f6101000a81548160ff0219169083151502179055507f5db9ee0a495bf2e6ff9c91a7834c1ba4fdd244a5e8aa4e537bd38aeae4b073aa610cfc610bc2565b604051610d0991906117b3565b60405180910390a1565b610d1b610d74565b6001805f6101000a81548160ff0219169083151502179055507f62e78cea01bee320cd4e420270b5ea74000d11b0c9f74754ebdbfc544b05a258610d5d610bc2565b604051610d6a91906117b3565b60405180910390a1565b610d7c610628565b15610db3576040517fd93c066500000000000000000000000000000000000000000000000000000000815260040160405180910390fd5b565b610dbf8282610654565b610e025780826040517fe2517d3f000000000000000000000000000000000000000000000000000000008152600401610df99291906117cc565b60405180910390fd5b5050565b610e0e610628565b610e44576040517f8dfc202b00000000000000000000000000000000000000000000000000000000815260040160405180910390fd5b565b5f80fd5b5f80fd5b5f7fffffffff0000000000000000000000000000000000000000000000000000000082169050919050565b610e8281610e4e565b8114610e8c575f80fd5b50565b5f81359050610e9d81610e79565b92915050565b5f60208284031215610eb857610eb7610e46565b5b5f610ec584828501610e8f565b91505092915050565b5f8115159050919050565b610ee281610ece565b82525050565b5f602082019050610efb5f830184610ed9565b92915050565b5f73ffffffffffffffffffffffffffffffffffffffff82169050919050565b5f819050919050565b5f610f43610f3e610f3984610f01565b610f20565b610f01565b9050919050565b5f610f5482610f29565b9050919050565b5f610f6582610f4a565b9050919050565b610f7581610f5b565b82525050565b5f602082019050610f8e5f830184610f6c565b92915050565b5f819050919050565b610fa681610f94565b8114610fb0575f80fd5b50565b5f81359050610fc181610f9d565b92915050565b5f60208284031215610fdc57610fdb610e46565b5b5f610fe984828501610fb3565b91505092915050565b610ffb81610f94565b82525050565b5f6020820190506110145f830184610ff2565b92915050565b5f819050919050565b61102c8161101a565b8114611036575f80fd5b50565b5f8135905061104781611023565b92915050565b5f806040838503121561106357611062610e46565b5b5f61107085828601611039565b925050602061108185828601611039565b9150509250929050565b5f61109582610f01565b9050919050565b6110a58161108b565b82525050565b6110b48161101a565b82525050565b5f81519050919050565b5f82825260208201905092915050565b5f5b838110156110f15780820151818401526020810190506110d6565b5f8484015250505050565b5f601f19601f8301169050919050565b5f611116826110ba565b61112081856110c4565b93506111308185602086016110d4565b611139816110fc565b840191505092915050565b5f6080820190506111575f83018761109c565b61116460208301866110ab565b8181036040830152611176818561110c565b905061118560608301846110ab565b95945050505050565b6111978161108b565b81146111a1575f80fd5b50565b5f813590506111b28161118e565b92915050565b5f80604083850312156111ce576111cd610e46565b5b5f6111db85828601610fb3565b92505060206111ec858286016111a4565b9150509250929050565b5f6020828403121561120b5761120a610e46565b5b5f61121884828501611039565b91505092915050565b5f6020820190506112345f8301846110ab565b92915050565b5f80fd5b5f80fd5b5f80fd5b5f8083601f84011261125b5761125a61123a565b5b8235905067ffffffffffffffff8111156112785761127761123e565b5b60208301915083600182028301111561129457611293611242565b5b9250929050565b5f805f80606085870312156112b3576112b2610e46565b5b5f6112c087828801611039565b94505060206112d187828801611039565b935050604085013567ffffffffffffffff8111156112f2576112f1610e4a565b5b6112fe87828801611246565b925092505092959194509250565b5f60408201905061131f5f8301856110ab565b61132c60208301846110ab565b9392505050565b7f4e487b71000000000000000000000000000000000000000000000000000000005f52603260045260245ffd5b7f4e487b71000000000000000000000000000000000000000000000000000000005f52602260045260245ffd5b5f60028204905060018216806113a457607f821691505b6020821081036113b7576113b6611360565b5b50919050565b5f815190506113cb8161118e565b92915050565b5f602082840312156113e6576113e5610e46565b5b5f6113f3848285016113bd565b91505092915050565b7f4e487b71000000000000000000000000000000000000000000000000000000005f52604160045260245ffd5b5f819050815f5260205f209050919050565b5f6020601f8301049050919050565b5f82821b905092915050565b5f600883026114857fffffffffffffffffffffffffffffffffffffffffffffffffffffffffffffffff8261144a565b61148f868361144a565b95508019841693508086168417925050509392505050565b5f6114c16114bc6114b78461101a565b610f20565b61101a565b9050919050565b5f819050919050565b6114da836114a7565b6114ee6114e6826114c8565b848454611456565b825550505050565b5f90565b6115026114f6565b61150d8184846114d1565b505050565b5b81811015611530576115255f826114fa565b600181019050611513565b5050565b601f8211156115755761154681611429565b61154f8461143b565b8101602085101561155e578190505b61157261156a8561143b565b830182611512565b50505b505050565b5f82821c905092915050565b5f6115955f198460080261157a565b1980831691505092915050565b5f6115ad8383611586565b9150826002028217905092915050565b6115c6826110ba565b67ffffffffffffffff8111156115df576115de6113fc565b5b6115e9825461138d565b6115f4828285611534565b5f60209050601f831160018114611625575f8415611613578287015190505b61161d85826115a2565b865550611684565b601f19841661163386611429565b5f5b8281101561165a57848901518255600182019150602085019450602081019050611635565b868310156116775784890151611673601f891682611586565b8355505b6001600288020188555050505b505050505050565b828183375f83830152505050565b5f6116a583856110c4565b93506116b283858461168c565b6116bb836110fc565b840190509392505050565b5f6040820190506116d95f8301866110ab565b81810360208301526116ec81848661169a565b9050949350505050565b7f4e487b71000000000000000000000000000000000000000000000000000000005f52601160045260245ffd5b5f61172d8261101a565b91506117388361101a565b92508282019050808211156117505761174f6116f6565b5b92915050565b7f4e487b71000000000000000000000000000000000000000000000000000000005f52601260045260245ffd5b5f61178d8261101a565b91506117988361101a565b9250826117a8576117a7611756565b5b828204905092915050565b5f6020820190506117c65f83018461109c565b92915050565b5f6040820190506117df5f83018561109c565b6117ec6020830184610ff2565b939250505056fea26469706673582212201afd3e274b6718325e7cf83f43278121aa5f1c1f3be78fb5cf17fda534ac780264736f6c63430008180033","linkReferences":{}},"methodIdentifiers":{"DEFAULT_ADMIN_ROLE()":"a217fddf","EVALUATOR_ROLE()":"30d0ea31","getFeedbackCount(uint256)":"4537b764","getRoleAdmin(bytes32)":"248a9ca3","getSummary(uint256)":"aee14460","giveFeedback(uint256,uint256,string)":"9d7a4fc3","grantRole(bytes32,address)":"2f2ff15d","hasRole(bytes32,address)":"91d14854","identityRegistry()":"134e18f4","pause()":"8456cb59","paused()":"5c975abb","readFeedback(uint256,uint256)":"28fdef49","renounceRole(bytes32,address)":"36568abe","revokeRole(bytes32,address)":"d547741f","supportsInterface(bytes4)":"01ffc9a7","unpause()":"3f4ba83a"},"id":39}