{"abi":[{"type":"constructor","inputs":[],"stateMutability":"nonpayable"},{"type":"function","name":"DEFAULT_ADMIN_ROLE","inputs":[],"outputs":[{"name":"","type":"bytes32","internalType":"bytes32"}],"stateMutability":"view"},{"type":"function","name":"MAX_SUPPLY","inputs":[],"outputs":[{"name":"","type":"uint256","internalType":"uint256"}],"stateMutability":"view"},{"type":"function","name":"REGISTRAR_ROLE","inputs":[],"outputs":[{"name":"","type":"bytes32","internalType":"bytes32"}],"stateMutability":"view"},{"type":"function","name":"approve","inputs":[{"name":"to","type":"address","internalType":"address"},{"name":"tokenId","type":"uint256","internalType":"uint256"}],"outputs":[],"stateMutability":"nonpayable"},{"type":"function","name":"balanceOf","inputs":[{"name":"owner","type":"address","internalType":"address"}],"outputs":[{"name":"","type":"uint256","internalType":"uint256"}],"stateMutability":"view"},{"type":"function","name":"getApproved","inputs":[{"name":"tokenId","type":"uint256","internalType":"uint256"}],"outputs":[{"name":"","type":"address","internalType":"address"}],"stateMutability":"view"},{"type":"function","name":"getMetadata","inputs":[{"name":"tokenId","type":"uint256","internalType":"uint256"}],"outputs":[{"name":"owner","type":"address","internalType":"address"},{"name":"agentURI","type":"string","internalType":"string"}],"stateMutability":"view"},{"type":"function","name":"getRoleAdmin","inputs":[{"name":"role","type":"bytes32","internalType":"bytes32"}],"outputs":[{"name":"","type":"bytes32","internalType":"bytes32"}],"stateMutability":"view"},{"type":"function","name":"grantRole","inputs":[{"name":"role","type":"bytes32","internalType":"bytes32"},{"name":"account","type":"address","internalType":"address"}],"outputs":[],"stateMutability":"nonpayable"},{"type":"function","name":"hasRole","inputs":[{"name":"role","type":"bytes32","internalType":"bytes32"},{"name":"account","type":"address","internalType":"address"}],"outputs":[{"name":"","type":"bool","internalType":"bool"}],"stateMutability":"view"},{"type":"function","name":"isApprovedForAll","inputs":[{"name":"owner","type":"address","internalType":"address"},{"name":"operator","type":"address","internalType":"address"}],"outputs":[{"name":"","type":"bool","internalType":"bool"}],"stateMutability":"view"},{"type":"function","name":"name","inputs":[],"outputs":[{"name":"","type":"string","internalType":"string"}],"stateMutability":"view"},{"type":"function","name":"ownerOf","inputs":[{"name":"tokenId","type":"uint256","internalType":"uint256"}],"outputs":[{"name":"","type":"address","internalType":"address"}],"stateMutability":"view"},{"type":"function","name":"pause","inputs":[],"outputs":[],"stateMutability":"nonpayable"},{"type":"function","name":"paused","inputs":[],"outputs":[{"name":"","type":"bool","internalType":"bool"}],"stateMutability":"view"},{"type":"function","name":"register","inputs":[{"name":"owner","type":"address","internalType":"address"},{"name":"agentURI","type":"string","internalType":"string"}],"outputs":[{"name":"tokenId","type":"uint256","internalType":"uint256"}],"stateMutability":"nonpayable"},{"type":"function","name":"renounceRole","inputs":[{"name":"role","type":"bytes32","internalType":"bytes32"},{"name":"callerConfirmation","type":"address","internalType":"address"}],"outputs":[],"stateMutability":"nonpayable"},{"type":"function","name":"revokeRole","inputs":[{"name":"role","type":"bytes32","internalType":"bytes32"},{"name":"account","type":"address","internalType":"address"}],"outputs":[],"stateMutability":"nonpayable"},{"type":"function","name":"safeTransferFrom","inputs":[{"name":"from","type":"address","internalType":"address"},{"name":"to","type":"address","internalType":"address"},{"name":"tokenId","type":"uint256","internalType":"uint256"}],"outputs":[],"stateMutability":"nonpayable"},{"type":"function","name":"safeTransferFrom","inputs":[{"name":"from","type":"address","internalType":"address"},{"name":"to","type":"address","internalType":"address"},{"name":"tokenId","type":"uint256","internalType":"uint256"},{"name":"data","type":"bytes","internalType":"bytes"}],"outputs":[],"stateMutability":"nonpayable"},{"type":"function","name":"setAgentURI","inputs":[{"name":"tokenId","type":"uint256","internalType":"uint256"},{"name":"agentURI","type":"string","internalType":"string"}],"outputs":[],"stateMutability":"nonpayable"},{"type":"function","name":"setApprovalForAll","inputs":[{"name":"operator","type":"address","internalType":"address"},{"name":"approved","type":"bool","internalType":"bool"}],"outputs":[],"stateMutability":"nonpayable"},{"type":"function","name":"supportsInterface","inputs":[{"name":"interfaceId","type":"bytes4","internalType":"bytes4"}],"outputs":[{"name":"","type":"bool","internalType":"bool"}],"stateMutability":"view"},{"type":"function","name":"symbol","inputs":[],"outputs":[{"name":"","type":"string","internalType":"string"}],"stateMutability":"view"},{"type":"function","name":"tokenURI","inputs":[{"name":"tokenId","type":"uint256","internalType":"uint256"}],"outputs":[{"name":"","type":"string","internalType":"string"}],"stateMutability":"view"},{"type":"function","name":"transferFrom","inputs":[{"name":"from","type":"address","internalType":"address"},{"name":"to","type":"address","internalType":"address"},{"name":"tokenId","type":"uint256","internalType":"uint256"}],"outputs":[],"stateMutability":"nonpayable"},{"type":"function","name":"unpause","inputs":[],"outputs":[],"stateMutability":"nonpayable"},{"type":"event","name":"AgentURIUpdated","inputs":[{"name":"tokenId","type":"uint256","indexed":true,"internalType":"uint256"},{"name":"agentURI","type":"string","indexed":false,"internalType":"string"}],"anonymous":false},{"type":"event","name":"Approval","inputs":[{"name":"owner","type":"address","indexed":true,"internalType":"address"},{"name":"approved","type":"address","indexed":true,"internalType":"address"},{"name":"tokenId","type":"uint256","indexed":true,"internalType":"uint256"}],"anonymous":false},{"type":"event","name":"ApprovalForAll","inputs":[{"name":"owner","type":"address","indexed":true,"internalType":"address"},{"name":"operator","type":"address","indexed":true,"internalType":"address"},{"name":"approved","type":"bool","indexed":false,"internalType":"bool"}],"anonymous":false},{"type":"event","name":"Paused","inputs":[{"name":"account","type":"address","indexed":false,"internalType":"address"}],"anonymous":false},{"type":"event","name":"ProjectRegistered","inputs":[{"name":"tokenId","type":"uint256","indexed":true,"internalType":"uint256"},{"name":"owner","type":"address","indexed":true,"internalType":"address"},{"name":"agentURI","type":"string","indexed":false,"internalType":"string"}],"anonymous":false},{"type":"event","name":"RoleAdminChanged","inputs":[{"name":"role","type":"bytes32","indexed":true,"internalType":"bytes32"},{"name":"previousAdminRole","type":"bytes32","indexed":true,"internalType":"bytes32"},{"name":"newAdminRole","type":"bytes32","indexed":true,"internalType":"bytes32"}],"anonymous":false},{"type":"event","name":"RoleGranted","inputs":[{"name":"role","type":"bytes32","indexed":true,"internalType":"bytes32"},{"name":"account","type":"address","indexed":true,"internalType":"address"},{"name":"sender","type":"address","indexed":true,"internalType":"address"}],"anonymous":false},{"type":"event","name":"RoleRevoked","inputs":[{"name":"role","type":"bytes32","indexed":true,"internalType":"bytes32"},{"name":"account","type":"address","indexed":true,"internalType":"address"},{"name":"sender","type":"address","indexed":true,"internalType":"address"}],"anonymous":false},{"type":"event","name":"Transfer","inputs":[{"name":"from","type":"address","indexed":true,"internalType":"address"},{"name":"to","type":"address","indexed":true,"internalType":"address"},{"name":"tokenId","type":"uint256","indexed":true,"internalType":"uint256"}],"anonymous":false},{"type":"event","name":"Unpaused","inputs":[{"name":"account","type":"address","indexed":false,"internalType":"address"}],"anonymous":false},{"type":"error","name":"AccessControlBadConfirmation","inputs":[]},{"type":"error","name":"AccessControlUnauthorizedAccount","inputs":[{"name":"account","type":"address","internalType":"address"},{"name":"neededRole","type":"bytes32","internalType":"bytes32"}]},{"type":"error","name":"ERC721IncorrectOwner","inputs":[{"name":"sender","type":"address","internalType":"address"},{"name":"tokenId","type":"uint256","internalType":"uint256"},{"name":"owner","type":"address","internalType":"address"}]},{"type":"error","name":"ERC721InsufficientApproval","inputs":[{"name":"operator","type":"address","internalType":"address"},{"name":"tokenId","type":"uint256","internalType":"uint256"}]},{"type":"error","name":"ERC721InvalidApprover","inputs":[{"name":"approver","type":"address","internalType":"address"}]},{"type":"error","name":"ERC721InvalidOperator","inputs":[{"name":"operator","type":"address","internalType":"address"}]},{"type":"error","name":"ERC721InvalidOwner","inputs":[{"name":"owner","type":"address","internalType":"address"}]},{"type":"error","name":"ERC721InvalidReceiver","inputs":[{"name":"receiver","type":"address","internalType":"address"}]},{"type":"error","name":"ERC721InvalidSender","inputs":[{"name":"sender","type":"address","internalType":"address"}]},{"type":"error","name":"ERC721NonexistentToken","inputs":[{"name":"tokenId","type":"uint256","internalType":"uint256"}]},{"type":"error","name":"EnforcedPause","inputs":[]},{"type":"error","name":"ExpectedPause","inputs":[]},{"type":"error","name":"MaxSupplyReached","inputs":[]},{"type":"error","name":"NotTokenOwner","inputs":[{"name":"caller","type":"address","internalType":"address"},{"name":"tokenId","type":"uint256","internalType":"uint256"}]},{"type":"error","name":"SoulboundTransferBlocked","inputs":[]},{"type":"error","name":"URITooLong","inputs":[{"name":"length","type":"uint256","internalType":"uint256"}]}],"bytecode":{"object":"0x608060405234801562000010575f80fd5b506040518060400160405280601181526020017f49504520436974792050726f6a656374730000000000000000000000000000008152506040518060400160405280600481526020017f4950455000000000000000000000000000000000000000000000000000000000815250815f90816200008d9190620004bb565b5080600190816200009f9190620004bb565b505050620000b65f801b33620000f060201b60201c565b50620000e97fedcc084d3dcd65a1f7f23c65c46722faca6953d28e43150a467cf43e5c30923833620000f060201b60201c565b506200059f565b5f620001038383620001ec60201b60201c565b620001e257600160065f8581526020019081526020015f205f015f8473ffffffffffffffffffffffffffffffffffffffff1673ffffffffffffffffffffffffffffffffffffffff1681526020019081526020015f205f6101000a81548160ff0219169083151502179055506200017e6200025060201b60201c565b73ffffffffffffffffffffffffffffffffffffffff168273ffffffffffffffffffffffffffffffffffffffff16847f2f8788117e7eff1d82e926ec794901d17c78024a50270940304540a733656f0d60405160405180910390a460019050620001e6565b5f90505b92915050565b5f60065f8481526020019081526020015f205f015f8373ffffffffffffffffffffffffffffffffffffffff1673ffffffffffffffffffffffffffffffffffffffff1681526020019081526020015f205f9054906101000a900460ff16905092915050565b5f33905090565b5f81519050919050565b7f4e487b71000000000000000000000000000000000000000000000000000000005f52604160045260245ffd5b7f4e487b71000000000000000000000000000000000000000000000000000000005f52602260045260245ffd5b5f6002820490506001821680620002d357607f821691505b602082108103620002e957620002e86200028e565b5b50919050565b5f819050815f5260205f209050919050565b5f6020601f8301049050919050565b5f82821b905092915050565b5f600883026200034d7fffffffffffffffffffffffffffffffffffffffffffffffffffffffffffffffff8262000310565b62000359868362000310565b95508019841693508086168417925050509392505050565b5f819050919050565b5f819050919050565b5f620003a36200039d620003978462000371565b6200037a565b62000371565b9050919050565b5f819050919050565b620003be8362000383565b620003d6620003cd82620003aa565b8484546200031c565b825550505050565b5f90565b620003ec620003de565b620003f9818484620003b3565b505050565b5b818110156200042057620004145f82620003e2565b600181019050620003ff565b5050565b601f8211156200046f576200043981620002ef565b620004448462000301565b8101602085101562000454578190505b6200046c620004638562000301565b830182620003fe565b50505b505050565b5f82821c905092915050565b5f620004915f198460080262000474565b1980831691505092915050565b5f620004ab838362000480565b9150826002028217905092915050565b620004c68262000257565b67ffffffffffffffff811115620004e257620004e162000261565b5b620004ee8254620002bb565b620004fb82828562000424565b5f60209050601f83116001811462000531575f84156200051c578287015190505b6200052885826200049e565b86555062000597565b601f1984166200054186620002ef565b5f5b828110156200056a5784890151825560018201915060208501945060208101905062000543565b868310156200058a578489015162000586601f89168262000480565b8355505b6001600288020188555050505b505050505050565b612c4e80620005ad5f395ff3fe608060405234801561000f575f80fd5b50600436106101a7575f3560e01c80635c975abb116100f7578063a22cb46511610095578063c87b56dd1161006f578063c87b56dd146104b6578063d547741f146104e6578063e985e9c514610502578063f68e955314610532576101a7565b8063a22cb4651461044d578063a574cea414610469578063b88d4fde1461049a576101a7565b80638456cb59116100d15780638456cb59146103d757806391d14854146103e157806395d89b4114610411578063a217fddf1461042f576101a7565b80635c975abb146103595780636352211e1461037757806370a08231146103a7576101a7565b8063248a9ca31161016457806332cb6b0c1161013e57806332cb6b0c146102f957806336568abe146103175780633f4ba83a1461033357806342842e0e1461033d576101a7565b8063248a9ca31461027d5780632f2ff15d146102ad57806332434a2e146102c9576101a7565b806301ffc9a7146101ab57806306fdde03146101db578063081812fc146101f9578063095ea7b3146102295780630af28bd31461024557806323b872dd14610261575b5f80fd5b6101c560048036038101906101c09190612003565b610550565b6040516101d29190612048565b60405180910390f35b6101e3610561565b6040516101f091906120eb565b60405180910390f35b610213600480360381019061020e919061213e565b6105f0565b60405161022091906121a8565b60405180910390f35b610243600480360381019061023e91906121eb565b61060b565b005b61025f600480360381019061025a919061228a565b610621565b005b61027b600480360381019061027691906122e7565b610750565b005b6102976004803603810190610292919061236a565b61084f565b6040516102a491906123a4565b60405180910390f35b6102c760048036038101906102c291906123bd565b61086c565b005b6102e360048036038101906102de91906123fb565b61088e565b6040516102f09190612467565b60405180910390f35b6103016109eb565b60405161030e9190612467565b60405180910390f35b610331600480360381019061032c91906123bd565b6109f1565b005b61033b610a6c565b005b610357600480360381019061035291906122e7565b610a83565b005b610361610aa2565b60405161036e9190612048565b60405180910390f35b610391600480360381019061038c919061213e565b610ab7565b60405161039e91906121a8565b60405180910390f35b6103c160048036038101906103bc9190612480565b610ac8565b6040516103ce9190612467565b60405180910390f35b6103df610b7e565b005b6103fb60048036038101906103f691906123bd565b610b95565b6040516104089190612048565b60405180910390f35b610419610bf9565b60405161042691906120eb565b60405180910390f35b610437610c89565b60405161044491906123a4565b60405180910390f35b610467600480360381019061046291906124d5565b610c8f565b005b610483600480360381019061047e919061213e565b610ca5565b604051610491929190612513565b60405180910390f35b6104b460048036038101906104af9190612669565b610d52565b005b6104d060048036038101906104cb919061213e565b610d77565b6040516104dd91906120eb565b60405180910390f35b61050060048036038101906104fb91906123bd565b610e22565b005b61051c600480360381019061051791906126e9565b610e44565b6040516105299190612048565b60405180910390f35b61053a610ed2565b60405161054791906123a4565b60405180910390f35b5f61055a82610ef6565b9050919050565b60605f805461056f90612754565b80601f016020809104026020016040519081016040528092919081815260200182805461059b90612754565b80156105e65780601f106105bd576101008083540402835291602001916105e6565b820191905f5260205f20905b8154815290600101906020018083116105c957829003601f168201915b5050505050905090565b5f6105fa82610f6f565b5061060482610ff5565b9050919050565b61061d828261061861102e565b611035565b5050565b610629611047565b3373ffffffffffffffffffffffffffffffffffffffff1661064984610ab7565b73ffffffffffffffffffffffffffffffffffffffff16146106a35733836040517f58a5e22200000000000000000000000000000000000000000000000000000000815260040161069a929190612784565b60405180910390fd5b6101008282905011156106f057818190506040517f94148dbc0000000000000000000000000000000000000000000000000000000081526004016106e79190612467565b60405180910390fd5b818160095f8681526020019081526020015f209182610710929190612952565b50827fe335f4a32c56fb32eb92f5084017a5836fcdc9307d02f49f27dd61f0f6a434a88383604051610743929190612a4b565b60405180910390a2505050565b5f73ffffffffffffffffffffffffffffffffffffffff168273ffffffffffffffffffffffffffffffffffffffff16036107c0575f6040517f64a0ae920000000000000000000000000000000000000000000000000000000081526004016107b791906121a8565b60405180910390fd5b5f6107d383836107ce61102e565b611088565b90508373ffffffffffffffffffffffffffffffffffffffff168173ffffffffffffffffffffffffffffffffffffffff1614610849578382826040517f64283d7b00000000000000000000000000000000000000000000000000000000815260040161084093929190612a6d565b60405180910390fd5b50505050565b5f60065f8381526020019081526020015f20600101549050919050565b6108758261084f565b61087e81611149565b610888838361115d565b50505050565b5f7fedcc084d3dcd65a1f7f23c65c46722faca6953d28e43150a467cf43e5c3092386108b981611149565b6108c1611047565b6103e8600854106108fe576040517fd05cb60900000000000000000000000000000000000000000000000000000000815260040160405180910390fd5b61010084849050111561094b57838390506040517f94148dbc0000000000000000000000000000000000000000000000000000000081526004016109429190612467565b60405180910390fd5b60085f81548092919061095d90612acf565b919050555060085491506109718583611247565b838360095f8581526020019081526020015f209182610991929190612952565b508473ffffffffffffffffffffffffffffffffffffffff16827f1fb4423aed62bba3e66f7c81a4af273642c7e8c57d7b111ae2b1aca9887869ba86866040516109db929190612a4b565b60405180910390a3509392505050565b6103e881565b6109f961102e565b73ffffffffffffffffffffffffffffffffffffffff168173ffffffffffffffffffffffffffffffffffffffff1614610a5d576040517f6697b23200000000000000000000000000000000000000000000000000000000815260040160405180910390fd5b610a678282611264565b505050565b5f801b610a7881611149565b610a8061134e565b50565b610a9d83838360405180602001604052805f815250610d52565b505050565b5f60075f9054906101000a900460ff16905090565b5f610ac182610f6f565b9050919050565b5f8073ffffffffffffffffffffffffffffffffffffffff168273ffffffffffffffffffffffffffffffffffffffff1603610b39575f6040517f89c62b64000000000000000000000000000000000000000000000000000000008152600401610b3091906121a8565b60405180910390fd5b60035f8373ffffffffffffffffffffffffffffffffffffffff1673ffffffffffffffffffffffffffffffffffffffff1681526020019081526020015f20549050919050565b5f801b610b8a81611149565b610b926113af565b50565b5f60065f8481526020019081526020015f205f015f8373ffffffffffffffffffffffffffffffffffffffff1673ffffffffffffffffffffffffffffffffffffffff1681526020019081526020015f205f9054906101000a900460ff16905092915050565b606060018054610c0890612754565b80601f0160208091040260200160405190810160405280929190818152602001828054610c3490612754565b8015610c7f5780601f10610c5657610100808354040283529160200191610c7f565b820191905f5260205f20905b815481529060010190602001808311610c6257829003601f168201915b5050505050905090565b5f801b81565b610ca1610c9a61102e565b8383611411565b5050565b5f6060610cb183610ab7565b915060095f8481526020019081526020015f208054610ccf90612754565b80601f0160208091040260200160405190810160405280929190818152602001828054610cfb90612754565b8015610d465780601f10610d1d57610100808354040283529160200191610d46565b820191905f5260205f20905b815481529060010190602001808311610d2957829003601f168201915b50505050509050915091565b610d5d848484610750565b610d71610d6861102e565b8585858561157a565b50505050565b6060610d8282610ab7565b5060095f8381526020019081526020015f208054610d9f90612754565b80601f0160208091040260200160405190810160405280929190818152602001828054610dcb90612754565b8015610e165780601f10610ded57610100808354040283529160200191610e16565b820191905f5260205f20905b815481529060010190602001808311610df957829003601f168201915b50505050509050919050565b610e2b8261084f565b610e3481611149565b610e3e8383611264565b50505050565b5f60055f8473ffffffffffffffffffffffffffffffffffffffff1673ffffffffffffffffffffffffffffffffffffffff1681526020019081526020015f205f8373ffffffffffffffffffffffffffffffffffffffff1673ffffffffffffffffffffffffffffffffffffffff1681526020019081526020015f205f9054906101000a900460ff16905092915050565b7fedcc084d3dcd65a1f7f23c65c46722faca6953d28e43150a467cf43e5c30923881565b5f7f7965db0b000000000000000000000000000000000000000000000000000000007bffffffffffffffffffffffffffffffffffffffffffffffffffffffff1916827bffffffffffffffffffffffffffffffffffffffffffffffffffffffff19161480610f685750610f6782611726565b5b9050919050565b5f80610f7a83611807565b90505f73ffffffffffffffffffffffffffffffffffffffff168173ffffffffffffffffffffffffffffffffffffffff1603610fec57826040517f7e273289000000000000000000000000000000000000000000000000000000008152600401610fe39190612467565b60405180910390fd5b80915050919050565b5f60045f8381526020019081526020015f205f9054906101000a900473ffffffffffffffffffffffffffffffffffffffff169050919050565b5f33905090565b6110428383836001611840565b505050565b61104f610aa2565b15611086576040517fd93c066500000000000000000000000000000000000000000000000000000000815260040160405180910390fd5b565b5f8061109384611807565b90505f73ffffffffffffffffffffffffffffffffffffffff168173ffffffffffffffffffffffffffffffffffffffff16141580156110fd57505f73ffffffffffffffffffffffffffffffffffffffff168573ffffffffffffffffffffffffffffffffffffffff1614155b15611134576040517fbb3f506900000000000000000000000000000000000000000000000000000000815260040160405180910390fd5b61113f8585856119ff565b9150509392505050565b61115a8161115561102e565b611c0a565b50565b5f6111688383610b95565b61123d57600160065f8581526020019081526020015f205f015f8473ffffffffffffffffffffffffffffffffffffffff1673ffffffffffffffffffffffffffffffffffffffff1681526020019081526020015f205f6101000a81548160ff0219169083151502179055506111da61102e565b73ffffffffffffffffffffffffffffffffffffffff168273ffffffffffffffffffffffffffffffffffffffff16847f2f8788117e7eff1d82e926ec794901d17c78024a50270940304540a733656f0d60405160405180910390a460019050611241565b5f90505b92915050565b611260828260405180602001604052805f815250611c5b565b5050565b5f61126f8383610b95565b15611344575f60065f8581526020019081526020015f205f015f8473ffffffffffffffffffffffffffffffffffffffff1673ffffffffffffffffffffffffffffffffffffffff1681526020019081526020015f205f6101000a81548160ff0219169083151502179055506112e161102e565b73ffffffffffffffffffffffffffffffffffffffff168273ffffffffffffffffffffffffffffffffffffffff16847ff6391f5c32d9c69d2a47ea670b442974b53935d1edc7fd64eb21e047a839171b60405160405180910390a460019050611348565b5f90505b92915050565b611356611c7e565b5f60075f6101000a81548160ff0219169083151502179055507f5db9ee0a495bf2e6ff9c91a7834c1ba4fdd244a5e8aa4e537bd38aeae4b073aa61139861102e565b6040516113a591906121a8565b60405180910390a1565b6113b7611047565b600160075f6101000a81548160ff0219169083151502179055507f62e78cea01bee320cd4e420270b5ea74000d11b0c9f74754ebdbfc544b05a2586113fa61102e565b60405161140791906121a8565b60405180910390a1565b5f73ffffffffffffffffffffffffffffffffffffffff168273ffffffffffffffffffffffffffffffffffffffff160361148157816040517f5b08ba1800000000000000000000000000000000000000000000000000000000815260040161147891906121a8565b60405180910390fd5b8060055f8573ffffffffffffffffffffffffffffffffffffffff1673ffffffffffffffffffffffffffffffffffffffff1681526020019081526020015f205f8473ffffffffffffffffffffffffffffffffffffffff1673ffffffffffffffffffffffffffffffffffffffff1681526020019081526020015f205f6101000a81548160ff0219169083151502179055508173ffffffffffffffffffffffffffffffffffffffff168373ffffffffffffffffffffffffffffffffffffffff167f17307eab39ab6107e8899845ad3d59bd9653f200f220920489ca2b5937696c318360405161156d9190612048565b60405180910390a3505050565b5f8373ffffffffffffffffffffffffffffffffffffffff163b111561171f578273ffffffffffffffffffffffffffffffffffffffff1663150b7a02868685856040518563ffffffff1660e01b81526004016115d89493929190612b68565b6020604051808303815f875af192505050801561161357506040513d601f19601f820116820180604052508101906116109190612bc6565b60015b611694573d805f8114611641576040519150601f19603f3d011682016040523d82523d5f602084013e611646565b606091505b505f81510361168c57836040517f64a0ae9200000000000000000000000000000000000000000000000000000000815260040161168391906121a8565b60405180910390fd5b805181602001fd5b63150b7a0260e01b7bffffffffffffffffffffffffffffffffffffffffffffffffffffffff1916817bffffffffffffffffffffffffffffffffffffffffffffffffffffffff19161461171d57836040517f64a0ae9200000000000000000000000000000000000000000000000000000000815260040161171491906121a8565b60405180910390fd5b505b5050505050565b5f7f80ac58cd000000000000000000000000000000000000000000000000000000007bffffffffffffffffffffffffffffffffffffffffffffffffffffffff1916827bffffffffffffffffffffffffffffffffffffffffffffffffffffffff191614806117f057507f5b5e139f000000000000000000000000000000000000000000000000000000007bffffffffffffffffffffffffffffffffffffffffffffffffffffffff1916827bffffffffffffffffffffffffffffffffffffffffffffffffffffffff1916145b8061180057506117ff82611cbe565b5b9050919050565b5f60025f8381526020019081526020015f205f9054906101000a900473ffffffffffffffffffffffffffffffffffffffff169050919050565b808061187857505f73ffffffffffffffffffffffffffffffffffffffff168273ffffffffffffffffffffffffffffffffffffffff1614155b156119aa575f61188784610f6f565b90505f73ffffffffffffffffffffffffffffffffffffffff168373ffffffffffffffffffffffffffffffffffffffff16141580156118f157508273ffffffffffffffffffffffffffffffffffffffff168173ffffffffffffffffffffffffffffffffffffffff1614155b801561190457506119028184610e44565b155b1561194657826040517fa9fbf51f00000000000000000000000000000000000000000000000000000000815260040161193d91906121a8565b60405180910390fd5b81156119a857838573ffffffffffffffffffffffffffffffffffffffff168273ffffffffffffffffffffffffffffffffffffffff167f8c5be1e5ebec7d5bd14f71427d1e84f3dd0314c0f7b2291e5b200ac8c7c3b92560405160405180910390a45b505b8360045f8581526020019081526020015f205f6101000a81548173ffffffffffffffffffffffffffffffffffffffff021916908373ffffffffffffffffffffffffffffffffffffffff16021790555050505050565b5f80611a0a84611807565b90505f73ffffffffffffffffffffffffffffffffffffffff168373ffffffffffffffffffffffffffffffffffffffff1614611a4b57611a4a818486611d27565b5b5f73ffffffffffffffffffffffffffffffffffffffff168173ffffffffffffffffffffffffffffffffffffffff1614611ad657611a8a5f855f80611840565b600160035f8373ffffffffffffffffffffffffffffffffffffffff1673ffffffffffffffffffffffffffffffffffffffff1681526020019081526020015f205f82825403925050819055505b5f73ffffffffffffffffffffffffffffffffffffffff168573ffffffffffffffffffffffffffffffffffffffff1614611b5557600160035f8773ffffffffffffffffffffffffffffffffffffffff1673ffffffffffffffffffffffffffffffffffffffff1681526020019081526020015f205f82825401925050819055505b8460025f8681526020019081526020015f205f6101000a81548173ffffffffffffffffffffffffffffffffffffffff021916908373ffffffffffffffffffffffffffffffffffffffff160217905550838573ffffffffffffffffffffffffffffffffffffffff168273ffffffffffffffffffffffffffffffffffffffff167fddf252ad1be2c89b69c2b068fc378daa952ba7f163c4a11628f55a4df523b3ef60405160405180910390a4809150509392505050565b611c148282610b95565b611c575780826040517fe2517d3f000000000000000000000000000000000000000000000000000000008152600401611c4e929190612bf1565b60405180910390fd5b5050565b611c658383611dea565b611c79611c7061102e565b5f85858561157a565b505050565b611c86610aa2565b611cbc576040517f8dfc202b00000000000000000000000000000000000000000000000000000000815260040160405180910390fd5b565b5f7f01ffc9a7000000000000000000000000000000000000000000000000000000007bffffffffffffffffffffffffffffffffffffffffffffffffffffffff1916827bffffffffffffffffffffffffffffffffffffffffffffffffffffffff1916149050919050565b611d32838383611edd565b611de5575f73ffffffffffffffffffffffffffffffffffffffff168373ffffffffffffffffffffffffffffffffffffffff1603611da657806040517f7e273289000000000000000000000000000000000000000000000000000000008152600401611d9d9190612467565b60405180910390fd5b81816040517f177e802f000000000000000000000000000000000000000000000000000000008152600401611ddc929190612784565b60405180910390fd5b505050565b5f73ffffffffffffffffffffffffffffffffffffffff168273ffffffffffffffffffffffffffffffffffffffff1603611e5a575f6040517f64a0ae92000000000000000000000000000000000000000000000000000000008152600401611e5191906121a8565b60405180910390fd5b5f611e6683835f611088565b90505f73ffffffffffffffffffffffffffffffffffffffff168173ffffffffffffffffffffffffffffffffffffffff1614611ed8575f6040517f73c6ac6e000000000000000000000000000000000000000000000000000000008152600401611ecf91906121a8565b60405180910390fd5b505050565b5f8073ffffffffffffffffffffffffffffffffffffffff168373ffffffffffffffffffffffffffffffffffffffff1614158015611f9457508273ffffffffffffffffffffffffffffffffffffffff168473ffffffffffffffffffffffffffffffffffffffff161480611f555750611f548484610e44565b5b80611f9357508273ffffffffffffffffffffffffffffffffffffffff16611f7b83610ff5565b73ffffffffffffffffffffffffffffffffffffffff16145b5b90509392505050565b5f604051905090565b5f80fd5b5f80fd5b5f7fffffffff0000000000000000000000000000000000000000000000000000000082169050919050565b611fe281611fae565b8114611fec575f80fd5b50565b5f81359050611ffd81611fd9565b92915050565b5f6020828403121561201857612017611fa6565b5b5f61202584828501611fef565b91505092915050565b5f8115159050919050565b6120428161202e565b82525050565b5f60208201905061205b5f830184612039565b92915050565b5f81519050919050565b5f82825260208201905092915050565b5f5b8381101561209857808201518184015260208101905061207d565b5f8484015250505050565b5f601f19601f8301169050919050565b5f6120bd82612061565b6120c7818561206b565b93506120d781856020860161207b565b6120e0816120a3565b840191505092915050565b5f6020820190508181035f83015261210381846120b3565b905092915050565b5f819050919050565b61211d8161210b565b8114612127575f80fd5b50565b5f8135905061213881612114565b92915050565b5f6020828403121561215357612152611fa6565b5b5f6121608482850161212a565b91505092915050565b5f73ffffffffffffffffffffffffffffffffffffffff82169050919050565b5f61219282612169565b9050919050565b6121a281612188565b82525050565b5f6020820190506121bb5f830184612199565b92915050565b6121ca81612188565b81146121d4575f80fd5b50565b5f813590506121e5816121c1565b92915050565b5f806040838503121561220157612200611fa6565b5b5f61220e858286016121d7565b925050602061221f8582860161212a565b9150509250929050565b5f80fd5b5f80fd5b5f80fd5b5f8083601f84011261224a57612249612229565b5b8235905067ffffffffffffffff8111156122675761226661222d565b5b60208301915083600182028301111561228357612282612231565b5b9250929050565b5f805f604084860312156122a1576122a0611fa6565b5b5f6122ae8682870161212a565b935050602084013567ffffffffffffffff8111156122cf576122ce611faa565b5b6122db86828701612235565b92509250509250925092565b5f805f606084860312156122fe576122fd611fa6565b5b5f61230b868287016121d7565b935050602061231c868287016121d7565b925050604061232d8682870161212a565b9150509250925092565b5f819050919050565b61234981612337565b8114612353575f80fd5b50565b5f8135905061236481612340565b92915050565b5f6020828403121561237f5761237e611fa6565b5b5f61238c84828501612356565b91505092915050565b61239e81612337565b82525050565b5f6020820190506123b75f830184612395565b92915050565b5f80604083850312156123d3576123d2611fa6565b5b5f6123e085828601612356565b92505060206123f1858286016121d7565b9150509250929050565b5f805f6040848603121561241257612411611fa6565b5b5f61241f868287016121d7565b935050602084013567ffffffffffffffff8111156124405761243f611faa565b5b61244c86828701612235565b92509250509250925092565b6124618161210b565b82525050565b5f60208201905061247a5f830184612458565b92915050565b5f6020828403121561249557612494611fa6565b5b5f6124a2848285016121d7565b91505092915050565b6124b48161202e565b81146124be575f80fd5b50565b5f813590506124cf816124ab565b92915050565b5f80604083850312156124eb576124ea611fa6565b5b5f6124f8858286016121d7565b9250506020612509858286016124c1565b9150509250929050565b5f6040820190506125265f830185612199565b818103602083015261253881846120b3565b90509392505050565b5f80fd5b7f4e487b71000000000000000000000000000000000000000000000000000000005f52604160045260245ffd5b61257b826120a3565b810181811067ffffffffffffffff8211171561259a57612599612545565b5b80604052505050565b5f6125ac611f9d565b90506125b88282612572565b919050565b5f67ffffffffffffffff8211156125d7576125d6612545565b5b6125e0826120a3565b9050602081019050919050565b828183375f83830152505050565b5f61260d612608846125bd565b6125a3565b90508281526020810184848401111561262957612628612541565b5b6126348482856125ed565b509392505050565b5f82601f8301126126505761264f612229565b5b81356126608482602086016125fb565b91505092915050565b5f805f806080858703121561268157612680611fa6565b5b5f61268e878288016121d7565b945050602061269f878288016121d7565b93505060406126b08782880161212a565b925050606085013567ffffffffffffffff8111156126d1576126d0611faa565b5b6126dd8782880161263c565b91505092959194509250565b5f80604083850312156126ff576126fe611fa6565b5b5f61270c858286016121d7565b925050602061271d858286016121d7565b9150509250929050565b7f4e487b71000000000000000000000000000000000000000000000000000000005f52602260045260245ffd5b5f600282049050600182168061276b57607f821691505b60208210810361277e5761277d612727565b5b50919050565b5f6040820190506127975f830185612199565b6127a46020830184612458565b9392505050565b5f82905092915050565b5f819050815f5260205f209050919050565b5f6020601f8301049050919050565b5f82821b905092915050565b5f600883026128117fffffffffffffffffffffffffffffffffffffffffffffffffffffffffffffffff826127d6565b61281b86836127d6565b95508019841693508086168417925050509392505050565b5f819050919050565b5f61285661285161284c8461210b565b612833565b61210b565b9050919050565b5f819050919050565b61286f8361283c565b61288361287b8261285d565b8484546127e2565b825550505050565b5f90565b61289761288b565b6128a2818484612866565b505050565b5b818110156128c5576128ba5f8261288f565b6001810190506128a8565b5050565b601f82111561290a576128db816127b5565b6128e4846127c7565b810160208510156128f3578190505b6129076128ff856127c7565b8301826128a7565b50505b505050565b5f82821c905092915050565b5f61292a5f198460080261290f565b1980831691505092915050565b5f612942838361291b565b9150826002028217905092915050565b61295c83836127ab565b67ffffffffffffffff81111561297557612974612545565b5b61297f8254612754565b61298a8282856128c9565b5f601f8311600181146129b7575f84156129a5578287013590505b6129af8582612937565b865550612a16565b601f1984166129c5866127b5565b5f5b828110156129ec578489013582556001820191506020850194506020810190506129c7565b86831015612a095784890135612a05601f89168261291b565b8355505b6001600288020188555050505b50505050505050565b5f612a2a838561206b565b9350612a378385846125ed565b612a40836120a3565b840190509392505050565b5f6020820190508181035f830152612a64818486612a1f565b90509392505050565b5f606082019050612a805f830186612199565b612a8d6020830185612458565b612a9a6040830184612199565b949350505050565b7f4e487b71000000000000000000000000000000000000000000000000000000005f52601160045260245ffd5b5f612ad98261210b565b91507fffffffffffffffffffffffffffffffffffffffffffffffffffffffffffffffff8203612b0b57612b0a612aa2565b5b600182019050919050565b5f81519050919050565b5f82825260208201905092915050565b5f612b3a82612b16565b612b448185612b20565b9350612b5481856020860161207b565b612b5d816120a3565b840191505092915050565b5f608082019050612b7b5f830187612199565b612b886020830186612199565b612b956040830185612458565b8181036060830152612ba78184612b30565b905095945050505050565b5f81519050612bc081611fd9565b92915050565b5f60208284031215612bdb57612bda611fa6565b5b5f612be884828501612bb2565b91505092915050565b5f604082019050612c045f830185612199565b612c116020830184612395565b939250505056fea2646970667358221220c7176df1e2879cce2906575b0b2197029841d40aaa00fb163d0d5c3826be2e8064736f6c63430008180033","linkReferences":{}},"methodIdentifiers":{"DEFAULT_ADMIN_ROLE()":"a217fddf","MAX_SUPPLY()":"32cb6b0c","REGISTRAR_ROLE()":"f68e9553","approve(address,uint256)":"095ea7b3","balanceOf(address)":"70a08231","getApproved(uint256)":"081812fc","getMetadata(uint256)":"a574cea4","getRoleAdmin(bytes32)":"248a9ca3","grantRole(bytes32,address)":"2f2ff15d","hasRole(bytes32,address)":"91d14854","isApprovedForAll(address,address)":"e985e9c5","name()":"06fdde03","ownerOf(uint256)":"6352211e","pause()":"8456cb59","paused()":"5c975abb","register(address,string)":"32434a2e","renounceRole(bytes32,address)":"36568abe","revokeRole(bytes32,address)":"d547741f","safeTransferFrom(address,address,uint256)":"42842e0e","safeTransferFrom(address,address,uint256,bytes)":"b88d4fde","setAgentURI(uint256,string)":"0af28bd3","setApprovalForAll(address,bool)":"a22cb465","supportsInterface(bytes4)":"01ffc9a7","symbol()":"95d89b41","tokenURI(uint256)":"c87b56dd","transferFrom(address,address,uint256)":"23b872dd","unpause()":"3f4ba83a"},"id":38}